:100000002EC151C150C1CBC34EC14DC14CC14BC11A
:100010004AC149C148C147C146C121C4D3C3522DB9
:1000200050690100030033020000010000002A00B3
:100030000000E3B0BF27E7FC80980E4CBCCE909048
:100040002DC3010001000E044D69636861656C20D9
:1000500042756573636850694C43C7C30200010071
:100060002000000000000000E4E4C0C0C0C0C0C028
:10007000C0C0C0C0E4E4C0C0C1C0C0C0C0C0C0C037
:10008000C0C0C07E03000200C5010000D00DFEED1F
:10009000000001C3000000380000017000000028CB
:1000A00000000011000000100000000000000053DC
:1000B0000000013800000000000000000000000007
:1000C000000000000000000100000000000000032C
:1000D0000000000D000000006272636D2C62636D11
:1000E000323730380000000000000001667261679E
:1000F0006D656E74403000000000000300000004D5
:100100000000000BDEADBEEF000000015F5F6F7608
:1001100065726C61795F5F000000000300000004FD
:1001200000000012000000010000000300000004B5
:100130000000002100000000000000030000000596
:100140000000002D6F6B61790000000000000001CD
:10015000727633303239403536000000000000033B
:1001600000000014000000006D6963726F63727913
:100170007374616C2C7276333032390000000003E6
:1001800000000004000000340000005600000003DE
:100190000000000400000038000003E80000000335
:1001A000000000050000002D6F6B61790000000069
:1001B0000000000200000002000000020000000138
:1001C0005F5F6669787570735F5F00000000000311
:1001D000000000150000004E2F667261676D656EAD
:1001E0007440303A7461726765743A300000000000
:1001F000000000020000000200000009636F6D7043
:10020000617469626C650074617267657400236172
:100210006464726573732D63656C6C73002373691A
:100220007A652D63656C6C7300737461747573000B
:1002300072656700747269636B6C652D72657369B2
:1002400073746F722D6F686D73006932633100854E
:10025000573002F201F8029A02670252020011249A
:100260001FBECFE5D2E0DEBFCDBF14BE9CE088E16B
:100270000FB6F894A89581BD0FBE91BD10E0A0E621
:10028000B0E0E6E2FBE002C005900D92AC39B107A8
:10029000D9F720E0ACE9B0E001C01D92AA3BB2075B
:1002A000E1F7FCD23EC4ACCEA0E0B0E0E9E5F1E07D
:1002B000D5C39093B9008093B8008730910518F0AA
:1002C000EC01269702C0C0E0D0E087E0E82EF12CD8
:1002D00090E4492E92E4592E9FE0692E712C10E093
:1002E00002E12AE7D22EC12C3AE0832E912CA12CD8
:1002F000B12C612F702F8D2D9C2DA50194016DD3F4
:10030000672B682B692BB1F09E0140E050E0612F14
:10031000702F8D2D9C2D85D349015A016B017C01D5
:1003200081E0881A9108A108B108CDE7D0E00EE677
:1003300010E014C0E1E0EE1AF10831F3122F032FA0
:10034000D42EC52EC301B201A501940146D32901C3
:100350003A01CFCFF0E0CB39DF07B9F0699179915D
:1003600080E090E0A30192015CD3CA01B901680D5D
:10037000791D8A1D9B1D31D3F80191918F012F3F6B
:1003800031054105510509F028F7BC98C49889B793
:100390008F7B89BF1092B6002EBD90BFCDB7DEB760
:1003A000E0E178C39091A6009F3F59F09091A7009B
:1003B0009F3F51F09091A8009F3F99F422E030E0D8
:1003C00005C020E030E002C021E030E0F901EA554C
:1003D000FF4F8083220F331FF901E056FF4F7183D7
:1003E0006083089581111092AC008091AC0081303F
:1003F00021F1A0F0823091F58091AD009091AE0096
:100400009C012F5F3F4F2F713327807E822B932BD0
:100410009093AE008093AD0081E0089570E0762F58
:1004200066278091AD00682B7F777093AE00609354
:10043000AD0081E08093AC0008958091AD00909173
:10044000AE008827862B9F779093AE008093AD00F7
:1004500082E08093AC008091AF00089580E0089521
:100460008091AC00882319F0823021F019C080916E
:10047000AD0008952091AD003091AE00233382E0AD
:10048000380728F4F901E25EFF4F849101C08FEF35
:100490002F5F3F4F3F773093AE002093AD0008951C
:1004A00080E0089590919F00292F215010F00000C6
:1004B000FCCF9F5F9A3218F490939F0002C0109275
:1004C0009F006C7F862B80939E0081E00895909121
:1004D0009D00292F215010F00000FCCF9F5F9A3221
:1004E00018F490939D0002C010929D0090919E0080
:1004F000811182E0892B089581BF0895CF93DF9306
:10050000C091B10091E09C0F9093B100D0E0C05534
:10051000DF4F8A83923058F08091B2009091B300FF
:100520009095891302C0FB0109951092B000DF91EC
:10053000CF910895882321F01092B0001092B1005D
:100540009091B0009230A9F0862F933040F4992317
:1005500059F0913009F04AC06CE772E026C0933040
:1005600011F1943021F142C06093B0001092B100BB
:100570003DC0E091B10081E08E0F8093B100F0E0CA
:10058000E055FF4F6283823088F19091B2008091F4
:10059000B3008095981304C0923010F41092AF000D
:1005A0001092B00023C06AE273E0A8DF1FC0E091A0
:1005B000B10091E09E0F9093B100F0E0E055FF4F45
:1005C0006283943098F08091B2002091B30090E063
:1005D000922B2091B4004091B50030E0342B20954F
:1005E000309582179307E1F65FDEDACF81E0089558
:1005F00081111092B1008091B000823051F020F44E
:10060000813031F581B721C0833031F0843039F049
:100610001FC08091AF0019C08091B70016C0E09153
:10062000B100E11108C09091B8008091B900909399
:10063000B2008093B30091E09E0F9093B100F0E080
:10064000E055FF4F8281943020F01092B000089561
:1006500080E00895833010F48093B7000895EFB1DF
:10066000E17009F452C0CBC0B898B299FECFF8EF50
:10067000FDB9FEE6FEB9F6E0F093AB00B9C02F93EA
:100680003F934F935F936F937F938F939F93AF931A
:10069000BF93EF93FF9380919C00B9D0082EFF91F8
:1006A000EF91BF91AF919F918F917F916F915F91EA
:1006B0004F913F912F9100FC1BC0B898F8B7F1FF04
:1006C000FDCFF8EEFDB9F1E6FEB9F0E0F093AB0036
:1006D0008FC0EFB1B299FECFE0939C001FB8B89ADB
:1006E000F8EFFDB9FEE6FEB9F5E0F093AB0080C08F
:1006F000B898F8B7F1FFFDCFF8EEFDB9F2E6FEB914
:10070000FEB9F4E0F093AB0073C02F933F934F9387
:100710005F936F937F938F939F93AF93BF93EF9369
:10072000FF938AD08FB9B89AFF91EF91BF91AF91A3
:100730009F918F917F916F915F914F913F912F91F9
:10074000F8B7F1FFFDCFF8EEFDB9F2E6FEB9FEB95C
:10075000F3E0F093AB004CC0EFB10E2E0694F09195
:10076000A600F015F0E059F0F091A700F015F1E0C7
:1007700031F0F091A800F015F2E009F040C0F093DC
:10078000AA00B299FECF1FB8B89AF8EFFDB9FEE6FD
:10079000FEB9F1E0E0FFF2E0F093AB0029C01F9258
:1007A0000F920FB60F9211248F93BC98C49889B7FB
:1007B0008F7B89BF1092B6008F910F900FBE0F9064
:1007C0001F901895FF93F5EFF2BFF2E0F8BFFFB767
:1007D000FF930F921F92EF931124E0E6F0E0009058
:1007E000AB00000CE00DF11D0190F081E02D0994AB
:1007F000EF911F900F90FF91FFBFFF911895F8EABE
:10080000FDB9F0E6FEB9FFEFF093AA00F1CFE09159
:10081000AA00F0E0EE0FFF1FE056FF4F0190F081BD
:10082000E02D32960590F491E02D682F8091A9007B
:1008300009951092A9000895E091AA00F0E0EE0F4A
:10084000FF1FE056FF4F0190F081E02D0590F491DD
:10085000E02D8091A90009951092A90008951F929A
:100860000F920FB60F9211248F93B898B29B02C0CB
:10087000B09BFCCFB09902C088EE8DB981EE8EB9E5
:100880001092AB008FEF8093AA0081E08093A900C3
:100890008F910F900FBE0F901F9018951092AB0084
:1008A0008FEF8093AA001092A9008FEF9FEFAFEF18
:1008B0008093A6009093A700A093A80013BE12BE39
:1008C00019BC18BC89B7857E89BF8AE188BF8CB501
:1008D0008E7F8CBD8CB58F778CBD1ABC82E083BFB8
:1008E000C09AB898C29ABA9A88EA8DB980EE8EB941
:1008F0001092AC001092AD001092AE001092AF00BA
:1009000061E572E080E54EDD1092B6001092B7000E
:100910001092B8001092B900C398BB98BC98C498C4
:100920008FE39CE90197F1F700C0000089B78F7B46
:1009300089BF17BC8CB58F788CBD1FBC1EBC1BBC7F
:100940001DBC80E488BF89B7806489BF8DE392E0D5
:10095000ABDC86E0E0EBF0E0DF011D928A95E9F781
:1009600065E572E08FE21EDD69E572E087E71ADD7A
:100970009AE088E10FB6F894A89581BD0FBE91BDAD
:10098000789420E431E0A8958091B7008823A9F0FD
:10099000A8958091B700882381F08130C9F79091A4
:1009A000B6009111F5CFBC9AC49A1FBC28BF99B765
:1009B000906499BF8093B600EBCF8091B60081110F
:1009C000E2CFB399E0CFBC9AC49A1FBC28BF89B7C5
:1009D000806489BF3093B600D6CFA1E21A2EAA1B3D
:1009E000BB1BFD010DC0AA1FBB1FEE1FFF1FA217DF
:1009F000B307E407F50720F0A21BB30BE40BF50BDC
:100A0000661F771F881F991F1A9469F76095709564
:100A1000809590959B01AC01BD01CF01089568942C
:100A20000013E894A0E0B0E0E7E1F5E01DC0EFEFCF
:100A3000E7F959016A015E23550FEE08FE2C870184
:100A40009B01AC019E23990F660B762FCB013BD007
:100A5000CDB7DEB7EAE024C02F923F924F925F926B
:100A60006F927F928F929F92AF92BF92CF92DF92BE
:100A7000EF92FF920F931F93CF93DF93CDB7DEB723
:100A8000CA1BDB0B0FB6F894DEBF0FBECDBF0994B7
:100A90002A88398848885F846E847D848C849B840E
:100AA000AA84B984C884DF80EE80FD800C811B811C
:100AB000AA81B981CE0FD11D0FB6F894DEBF0FBE4B
:100AC000CDBFED010895DF93CF939F92A0E49A2EBE
:100AD0000024D001E001F00116950795F794E79402
:100AE000D794C794B794A79448F41068A20FB31F83
:100AF000C41FD51FE61FF71F081E191E220F331F24
:100B0000441F551F661F771F881F991F9A9421F74E
:100B10009D01AE01BF01C00111249F90CF91DF91D3
:060B20000895F894FFCFD8
:100B2600AC0385037803340369033F032F030102F3
:100B3600030405060708090A0B0C0D0E0F01000237
:100B460000040008001000200040008000000100A2
:0C0B560002000400080010002000400015
:00000001FF
